:020000001F28B7
:100008007E1480310B1F0E284E011B1A111E0E285C
:1000180088241D280B1F16284E019B1A911E16288E
:1000280084241D280B1F1D284E0119180F1C1D287C
:100038006C237E10090020282030F901FA01FB0109
:10004800FC01FD0184000030850018305F247E101B
:1000580040012E2AF600D8287408FD0039234A21C9
:1000680008007408A70008007408A60008007408AF
:10007800A50008007408A4007C08803AF500270849
:10008800803A7502031D522826087B02031D522858
:1000980025087A02031D52282408790203185D28CE
:1000A8007C08A7007B08A6007A08A5007908A400A8
:1000B80008002708803AF5002308803A7502031DD6
:1000C8006F2822082602031D6F2821082502031D18
:1000D8006F2820082402031808002308A700220814
:1000E800A6002108A5002008A40008007408FC0048
:1000F80008007408FB0008007408FA000800740877
:10010800F9007C08803AF5002708803A7502031D3B
:10011800972826087B02031D972825087A02031DC5
:10012800972824087902031808007C08A7007B0890
:10013800A6007A08A5007908A40008007408A3009E
:1001480008007408A20008007408A10008007408D8
:10015800A0002708803AF5002308803A7502031D9D
:10016800BF2822082602031DBF2821082502031DD7
:10017800BF2820082402031808002308A700220823
:10018800A6002108A5002008A40008007408B300F0
:100198003308F000F101ED2308007408B2003208BA
:1001A800F000F101D9230800760884001030040219
:1001B8000318080011308431040782000800300B4E
:1001C800F2286B24652440013308B800B9019B2349
:1001D80040013208B800B9018523FC28B801B901EB
:1001E8009B234001B801B9018523103096009A007D
:1001F80040012F0B132955307D018F00AA308F0045
:100208000F103C08C0391338BC003B08C0391438FB
:10021800BB0055308F00AA308F000F1426295530A7
:100228007D018F00AA308F000F103C08C0391438A8
:10023800BC003B08C0391338BB0055308F00AA30CA
:100248008F000F1440012E0B2C297E01B9122E2984
:100258007E01B916400198162D0B37294E0111124F
:100268001B129D303B294E0111121B1295307C0147
:1002780090004E011B1691129B127C019A004E01B0
:100288009B1640012C0B080001000800300B59296F
:100298007124772440013308F000F101ED23400177
:1002A8003208F000F101D9236229F001F101ED23B0
:1002B800F001F101D923103096009A0040012F0B6C
:1002C800792955307D018F00AA308F000F103C0826
:1002D800C0391338BC003B08C0391438BB0055304E
:1002E8008F00AA308F000F148C2955307D018F00A4
:1002F800AA308F000F103C08C0391438BC003B08E6
:10030800C0391338BB0055308F00AA308F000F1446
:1003180040012E0B92297E01B91294297E01B9164B
:10032800400198162D0B9D294E0111121B129D306C
:10033800A1294E0111121B1295307C0190004E012B
:100348001B1691129B127C019A004E019B164001CC
:100358002C0B080001000800203098009A01133087
:1003680092003E3094007E01CE01B8011B30B900E6
:100378002030CF00BA00D00100308B1B0130400183
:10038800B8008B1355307D018F00AA308F000F10F5
:100398000B307E01A0007D014608C0391138C60027
:1003A8004508C0391238C5003C08C0391438BC00AB
:1003B8003B08C0391338BB0016307E01A100153048
:1003C800A2000C30920055307D018F00AA308F00BA
:1003D8000F144001381CF2298B1708008B130800F2
:1003E80040013408031D08007F30B4000130A40721
:1003F8000030A53DA63DA73D023096247C08803AF2
:10040800F1002708803A7102031D142A26087B028E
:10041800031D142A25087A02031D142A24087902C8
:1004280003182A2A08309624360B222A2308A70004
:100438002208A6002108A5002008292A7C08A70070
:100448007B08A6007A08A5007908A4008C247F30D0
:10045800B4000800BC01BD0156248B170B17D1222C
:10046800E320552AB403592A8E1A422A8030BD0A3D
:100478003D02031C552ABC01BC0A552A3D08031934
:10048800552ABD03552A013090247C240230BC0033
:10049800552A8E1E552ABD033D08031D552ABC0149
:1004A800BD0140013408031D362A3C08003A0319EF
:1004B800382A013A0319472A033A03194D2A552ABB
:1004C800552A40013408031D0800FF30A407A53D44
:1004D800A63DA73D043096242708803AF10023085A
:1004E800803A7102031D822A22082602031D822AED
:1004F80021082502031D822A200824020318982AAD
:1005080010309624360B902A7C08A7007B08A6009A
:100518007A08A5007908972A2308A7002208A600C8
:100528002108A5002008A4008C247F30B40008000E
:10053800F700C62A4001A901A90A08003708AB003C
:10054800B52A3708F4002B082E204001AB0AB52A3B
:1005580040012908003A0319A52A013A0319A22AD9
:10056800A52AA901080040012B08052343018C0096
:100578004001AB0A080040012A0B080099249B247B
:10058800AA01080077088400043004020318080050
:10059800803084310407820008007D084001B500DE
:1005A8000130B5057D36B0000130B0057D08B800D2
:1005B800B836B8363808B6000130B6057D08B80038
:1005C800B836B836B8363808AF000130AF057D0EFA
:1005D8000F39AE000130AE057D08B8000530B836D9
:1005E800890BF32A3808AD000130AD057D08B80045
:1005F8000730B836890BFD2A3808AC000130AC0545
:100608000800F0002D2B7D08292B3108122B270814
:10061800122B2608122B2508122B2408F100013072
:10062800AA00372B7C08292B7B08292B7A08292B31
:100638007908292B2308292B2208292B2108292B63
:100648002008292B3308292B3208F100372BF10118
:10065800372B700884001030040203182B2B8431C8
:10066800213004078200710808007D08B5000130B8
:10067800B5057D36B0000130B0057D08F000F036D4
:10068800F0367008B6000130B6057D08F000F03687
:10069800F036F0367008AF000130AF057D0E0F3927
:1006A800AE000130AE057D08F0000530F036890B4C
:1006B8005A2B7008AD000130AD057D08F0000730F9
:1006C800F036890B642B7008AC000130AC050800CB
:1006D8000F1043010C08F8000F1D792B8F1A111FFA
:1006E800772B0330812B0130812B8F1A7D2B003023
:1006F800812B78084001B70002309C224301101674
:1007080008003908BB003808BA00BB36BA0CBB363B
:10071800BA0C3A0846019900400138080339BA0072
:10072800BA0CBA0C3A0CC0394601980008003908CE
:10073800BB003808BA00BB36BA0CBB36BA0C3A084C
:1007480046019500400138080339BA00BA0CBA0CC2
:100758003A0CC03946019400080004307C019B0023
:1007680001309C009D019E019F010230A000A8302D
:10077800A100A200A30095309A004E0191129B1689
:10078800080004307C01910092010130930094002C
:10079800950002309600A83097009800990095308F
:1007A80090004E0111121B1608007108F300700822
:1007B800F200F336F20CF336F20C72084601990097
:1007C80070080339F200F20CF20C720CC039980070
:1007D80008007108F3007008F200F336F20CF336E3
:1007E800F20C72084601950070080339F200F20C09
:1007F800F20C720CC0399400080043018F012630B6
:10080800900091019201FF308E0040013E084301A3
:100818008D004E010F10191408003028E2283528E1
:1008280038283B283E287A287D2880288328A22833
:10083800A528A828AB28CA28D128072B092B0B2BB9
:100848000D2B0F2B112B162B182B1A2B1C2B1E2B99
:10085800202B222B242B262B282B30304001BE00A6
:100868000C1C3E148C1CBE140C1E3E158C1DBE1593
:100878003E35BE00080045018E0101309000203051
:100888008F0091013F308D008C014E019010932C08
:10089800603051018D008F01910105309300900166
:1008A80092010800B0214C2431240124C523B1232E
:1008B80065246B243F2C640080010131890B602C76
:1008C8000034903046019A00990198010800903050
:1008D8004601960095019401080090304601960063
:1008E80095019401080090309A0099019801080038
:1008F800350B0800981208009E2AB72AAC2ABF2A8E
:1009080065224E0191120800F4214E0111120800CF
:10091800350B080098120800B800B104080045011A
:100928008E170800F000B1040800B10108009816FD
:020938000800B5
:020000040001F9
:0A000E008C3FFE379F3FFF1FFF3FAE
:00000001FF
